:020000040800F2
:10000000000003205135000851330008593300081F
:1000100061330008693300087133000800000000F4
:10002000000000000000000000000000793300081C
:10003000873300080000000095330008A333000850
:10004000A1350008A1350008A1350008A135000838
:10005000A1350008A1350008AF330008A13500081C
:10006000BD330008A1350008A1350008A1350008FE
:10007000A1350008A1350008A1350008A135000808
:10008000A1350008A1350008A1350008A1350008F8
:10009000A1350008A1350008A1350008A1350008E8
:1000A000A1350008A1350008A1350008A1350008D8
:1000B000A1350008A1350008A1350008A1350008C8
:1000C000A1350008A1350008A1350008A1350008B8
:1000D000A1350008A1350008A1350008A1350008A8
:1000E000CB330008A1350008A1350008A135000870
:1000F000A1350008A1350008A1350008A135000888
:10010000A1350008A1350008A1350008A135000877
:10011000A1350008A1350008A1350008A135000867
:10012000A1350008A1350008A1350008A135000857
:10013000A1350008A1350008A1350008A135000847
:10014000A1350008A1350008A1350008A135000837
:10015000A1350008A1350008A1350008A135000827
:10016000A1350008A1350008A1350008A135000817
:10017000A1350008A1350008A135000800000000E5
:10018000A1350008A1350008A1350008A1350008F7
:10019000A1350008A1350008A1350008A1350008E7
:0C01A000A1350008A1350008A1350008B9
:1001B00010B5054C237833B9044B13B10448AFF3A1
:1001C00000800123237010BD4401002000000000C6
:1001D0005C74000808B5034B1BB103490348AFF337
:1001E000008008BD00000000480100205C74000889
:1001F00010F8012B11F8013B012A28BF9A42F7D0D1
:10020000D01A7047034613F8012B002AFBD1181AA5
:1002100001387047000000000000000000000000EE
:1002200001F0FF01102A2BDB10F0070F08D010F8A7
:10023000013B013A8B422DD010F0070F42B3F6D1AB
:10024000F0B441EA012141EA014122F007047FF0C4
:1002500000070023F0E80256083C85EA010586EA1B
:10026000010685FA47F5A3FA87F586FA47F6A5FA57
:1002700087F68EB9EED1F0BC01F0FF0102F0070263
:1002800032B110F8013B013A83EA010313B1F8D10E
:100290000020704701387047002D06BF35460338EF
:1002A000073815F0010F07D1013015F4807F02BF28
:1002B000013015F4C03F0130F0BC0138704700BF79
:1002C00053B94AB9002908BF00281CBF4FF0FF31BD
:1002D0004FF0FF3000F06AB9ADF1080C6DE904CEC3
:1002E00000F006F8DDF804E0DDE9022304B0704711
:1002F0002DE9F047089D0C46002B4ED194468C45C5
:100300008646B2FA82F262D94AB1C2F12003914024
:1003100020FA03F30CFA02FC194300FA02FE4FEA3A
:100320001C471FFA8CF6B1FBF7F44FEA1E4307FB9C
:10033000141143EA014304FB06F199420AD91CEB6C
:10034000030304F1FF3080F01281994240F20F81E3
:10035000023C6344591A1FFA8EF3B1FBF7F007FB16
:10036000101143EA014300FB06F69E420AD91CEB3A
:10037000030300F1FF3180F0FC809E4240F2F980DF
:10038000634402389B1B40EA044000211DB1D34066
:100390000022C5E90032BDE8F0878B4205D90DB1D6
:1003A000C5E9000100210846F5E7B3FA83F1002909
:1003B00046D1A34202D39042C0F0F080861A64EB8B
:1003C00003030120002DE6D0C5E90063E3E7002A1E
:1003D00040F09080A1EB0C044FEA1C481FFA8CF708
:1003E0000121B4FBF8F64FEA1E4308FB164443EA2A
:1003F000044307FB06F0984208D91CEB030306F1FF
:10040000FF3402D2984200F2CD8026461C1A1FFA11
:100410008EF3B4FBF8F008FB104443EA044300FBFE
:1004200007F79F4208D91CEB030300F1FF3402D207
:100430009F4200F2B0802046DB1B40EA0640A5E761
:10044000C1F120068B4022FA06F71F4320FA06FC72
:1004500004FA01F343EA0C03F44000FA01F8380C03
:100460004FEA1349B4FBF0FE1FFA87FC00FB1E4461
:1004700049EA04440EFB0CF9A14502FA01F20AD93B
:100480003C190EF1FF3A80F08480A14540F2818052
:10049000AEF1020E3C44A4EB09041FFA83F9B4FB4D
:1004A000F0F300FB134449EA044403FB0CFCA445AD
:1004B00007D93C1903F1FF3067D2A44565D9023B47
:1004C0003C4443EA0E40A0FB0293A4EB0C049C4284
:1004D000CE469C4651D34ED055B1B8EB0E0364EBDB
:1004E0000C0404FA06F6CB401E43CC40C5E9006478
:1004F000002150E7C2F1200320FA03F10CFA02FCBC
:1005000024FA03F394400C434FEA1C4800FA02FE1D
:100510001FFA8CF7B3FBF8F008FB1031230C43EA09
:10052000014300FB07F1994208D91CEB030300F1DA
:10053000FF362CD299422AD9023863445B1AA4B2FE
:10054000B3FBF8F108FB113344EA034401FB07F362
:10055000A34208D91CEB040401F1FF3613D2A342D5
:1005600011D902396444E41A41EA004139E70446EA
:10057000F0E6084606E7C845AED2B9EB020E63EBDB
:10058000070C0138A8E73146EDE7034699E7304606
:10059000D4E7D6467FE7634402384DE70646234654
:1005A00008460FE7023E634430E700BF704700BFD4
:1005B00080B400AF0F4B104AC3F888200D4BD3F81E
:1005C0008C300C4A43F44033C2F88C30094B1B6822
:1005D000084A43F08053136000BF064B1B6803F0CA
:1005E0000053002BF9D000BF00BFBD465DF8047B6F
:1005F000704700BF00380240C032004480B483B06E
:1006000000AF0346FB800B46BB8013467B80FB8814
:10061000EF2B11D8BB88B3F5A07F0DD2FB885B0010
:100620001946BA8813461B019B1A5B010B4403F160
:1006300050431A467B88138000BF0C37BD465DF8D7
:10064000047B704790B585B000AF0446084611465C
:100650001A462346FB800346BB800B46FB701346BD
:100660003B80FB781F2B48D9FB787E2B45D8FB7845
:10067000A3F1200213469B001344224A1344BB609B
:100680000023FB7335E0FB7BBA6813441B78BB7314
:1006900000237B7327E0BB7B03F00103002B0ED00C
:1006A000FB7B9AB2FB88134498B27B7B9AB2BB88DF
:1006B00013449BB23A881946FFF7A0FF0DE0FB7B7D
:1006C0009AB2FB88134498B27B7B9AB2BB881344DE
:1006D0009BB23A8C1946FFF791FFBB7B5B08BB735B
:1006E0007B7B01337B737B7B072BD4D9FB7B013373
:1006F000FB73FB7B042BC6D900E000BF1437BD465B
:1007000090BD00BFCC78000890B587B002AFBA604A
:100710001A460346FB810B46BB811346FB800FE064
:10072000BB681A78FC88B989F8893B8C009323460A
:10073000FFF788FFFB890633FB81BB680133BB6091
:10074000BB681B78002BEBD100BF00BF1437BD4640
:1007500090BD90B585B000AF0446084611461A46D4
:100760002346FB800346BB800B467B8013463B80C1
:100770007B88FB8112E0FB88BB8108E0F989BB899B
:1007800000221846FFF73AFFBB890133BB81BA89C3
:10079000BB889A42F2D3FB890133FB81FA893B88FB
:1007A0009A42E8D300BF00BF1437BD4690BD000099
:1007B00080B582B000AF7860044A7B681360002087
:1007C00000F006F800BF0837BD4680BD600100207C
:1007D00080B584B000AF0346FB71FB79002B01D0DC
:1007E000802300E00023FB73002000F031F8034673
:1007F0005BB203F07F035AB297F90F3013435BB239
:10080000DBB21946002000F005F800BF1037BD46E6
:1008100080BD000080B586B002AF03460A46FB717A
:100820001346BB71FB793B73BB797B73074B18682D
:1008300007F10C024FF47A7300930223D02103F0E6
:1008400081FE00BF1037BD4680BD00BF60010020A3
:1008500080B586B002AF0346FB710D4B1868FA1DD8
:100860004FF47A7300930123D02103F06BFE084B01
:10087000186807F10F024FF47A7300930123D02117
:1008800003F05EFFFB7B18461037BD4680BD00BFFE
:100890006001002080B500AF0320FFF7D9FF0346B9
:1008A000184600F066F80346184680BD80B500AFD4
:1008B0000420FFF7CDFF0346184600F05AF8034620
:1008C000184680BD80B500AF0520FFF7C1FF034685
:1008D000184600F04EF80346184680BD80B582B039
:1008E00000AF1020FFF7B4FF03461A4692001344EE
:1008F0001A4691001A460B4613449B00FB800620C3
:10090000FFF7A6FF0346184600F033F803461A46E1
:10091000FB8813449BB218460837BD4680BD80B59E
:1009200000AF0220FFF794FF034603F03F03DBB262
:10093000184600F01EF80346184680BD80B500AF8B
:100940000120FFF785FF0346184600F012F8034622
:10095000184680BD80B500AF0020FFF779FF034641
:1009600003F07F03DBB2184600F003F80346184695
:1009700080BD80B483B000AF0346FB71FB791B09D7
:10098000DBB21A46920013445B00DAB2FB7903F043
:100990000F03DBB21344DBB218460C37BD465DF8DB
:1009A000047B7047B0B588B000AF786039603B68B1
:1009B000FB617868FFF726FC034601333B6102F0D8
:1009C000EDFF0023BB6133E04FF0FF33FB600023FA
:1009D0007B610DE0BA697B6913447A681A4407F1B8
:1009E0000C017B690B4412781A707B6901337B61BF
:1009F0007B69032B05D8BA697B6913443A699A422B
:100A0000E8D8FB6800221C46154622462B46F969A9
:100A1000022002F06FFF0346002B03D002F0E0FF3C
:100A200000230CE0FB690433FB61BB690433BB6149
:100A3000BA693B699A42C7D302F0D2FFFB691846F4
:100A40002037BD46B0BD80B483B000AF78607B680E
:100A50001B7818460C37BD465DF8047B704780B59F
:100A600084B000AF786039603868FFF7ECFF034668
:100A7000FF2B01D1002316E00023FB603A68FB68DE
:100A8000134419467A68FB6813440A781A707A6826
:100A9000FB6813441B78002B03D0FB680133FB6019
:100AA000ECE700BF012318461037BD4680BD80B576
:100AB00086B000AF02F072FF00237B6002237B61EF
:100AC0000B23FB6001233B613A463B1D1146184650
:100AD00003F0D6F80346002B03D002F081FF002379
:100AE00002E002F07DFF012318461837BD4680BDA5
:100AF00080B58CB000AF07F11C0300221A605A6069
:100B00009A60DA601A610023BB61794B1B6B784AEB
:100B100043F010031363764B1B6B03F01003BB61B0
:100B2000BB6900237B61724B1B6B714A43F08003EE
:100B300013636F4B1B6B03F080037B617B690023A6
:100B40003B616B4B1B6B6A4A43F001031363684BB9
:100B50001B6B03F001033B613B690023FB60644BAB
:100B60001B6B634A43F002031363614B1B6B03F07F
:100B70000203FB60FB680023BB605D4B1B6B5C4AA0
:100B800043F0080313635A4B1B6B03F00803BB606D
:100B9000BB6800237B60564B1B6B554A43F04003F8
:100BA0001363534B1B6B03F040037B607B68002394
:100BB0003B604F4B1B6B4E4A43F0040313634C4B9B
:100BC0001B6B03F004033B603B680022182149487B
:100BD00003F042FB00221021474803F03DFB0022B6
:100BE0000121464803F038FB01224FF4804144487C
:100BF00003F032FB1823FB6101233B6200237B627D
:100C00000023BB6207F11C0319463A4803F078F948
:100C10000123FB614FF444133B6200237B6207F125
:100C20001C031946344803F06BF91023FB610123C0
:100C30003B6200237B620023BB6207F11C03194661
:100C40002D4803F05DF90123FB6101233B62002382
:100C50007B620023BB6207F11C031946274803F09F
:100C60004FF94FF48053FB614FF444133B62002370
:100C70007B6207F11C031946224803F041F9042363
:100C8000FB614FF444133B6200237B6207F11C03BA
:100C900019461B4803F034F94FF48043FB610123EC
:100CA0003B6200237B620023BB6207F11C031946F1
:100CB000134803F025F900220021062002F0E3FD8D
:100CC000062002F0FCFD00220021082002F0DBFDDE
:100CD000082002F0F4FD00220021282002F0D3FDBC
:100CE000282002F0ECFD00BF3037BD4680BD00BFBC
:100CF00000380240001002400000024000040240A0
:100D000000180240000C024080B483B000AF78604D
:100D1000084611461A460346FB700B46BB70134645
:100D20007B707B681B68FA785200032101FA02F29B
:100D3000D2431340B978FA78520001FA02F21A430A
:100D40007B681A607B685B68FA78012101FA02F21D
:100D5000D24313407978FA7801FA02F21A437B6899
:100D60005A607B689B68FA785200032101FA02F20C
:100D7000D2431340397CFA78520001FA02F21A4346
:100D80007B689A607B68DB68FA785200032101FA7D
:100D900002F2D2431340397DFA78520001FA02F28E
:100DA0001A437B68DA603B7E102B27D0FB78072B39
:100DB00013D97B685B6AFA78083A92000F2101FA2E
:100DC00002F2D2431340397EFA78083A920001FACF
:100DD00002F21A437B685A6210E07B681B6AFA7859
:100DE00092000F2101FA02F2D2431340397EFA78C1
:100DF000920001FA02F21A437B681A6200BF0C37B4
:100E0000BD465DF8047B704780B500AF1B4B1C4AA4
:100E10001A601A4B1B4A5A60184B00229A60174BF3
:100E20000022DA60154B4FF480421A61134B002206
:100E30005A61124B00229A61104B0022DA610F4B6B
:100E400000221A620D4803F039FA0346002B01D044
:100E500001F002FD0021094804F02AFA0346002BA4
:100E600001D001F0F9FC0021044804F05DFA0346CA
:100E7000002B01D001F0F0FC00BF80BD6401002018
:100E8000005C0040A086010080B58AB000AF7860A9
:100E900007F1140300221A605A609A60DA601A613E
:100EA0007B681B68294A93424BD100233B61284B46
:100EB0001B6B274A43F004031363254B1B6B03F0A2
:100EC00004033B613B690023FB60214B1B6B204A01
:100ED00043F0010313631E4B1B6B03F00103FB6024
:100EE000FB684FF400737B611223BB610123FB613C
:100EF00003233B6204237B6207F114031946154860
:100F000002F0FEFF4FF480737B611223BB6101236B
:100F1000FB6103233B6204237B6207F11403194640
:100F20000D4802F0EDFF0023BB60094B1B6C084A23
:100F300043F400031364064B1B6C03F40003BB6013
:100F4000BB6800BF2837BD4680BD00BF005C0040C5
:100F500000380240000802400000024080B584B022
:100F600004AF104B1B6B0F4A43F00C0313631023A9
:100F700002930023019303230093002301220D21F8
:100F80000948FFF7C1FE10230293002301930323B6
:100F900000930023012202210448FFF7B5FE00BFA1
:100FA000BD4680BD00380240000C024000080240EF
:100FB00080B500AFCA2000F079F9C32000F08CF9A9
:100FC000082000F089F9502000F086F9CF2000F0C9
:100FD0006DF9002000F080F9C12000F07DF930208B
:100FE00000F07AF9ED2000F061F9642000F074F966
:100FF000032000F071F9122000F06EF9812000F05A
:101000006BF9E82000F052F9852000F065F9002026
:1010100000F062F9782000F05FF9CB2000F046F98B
:10102000392000F059F92C2000F056F9002000F08A
:1010300053F9342000F050F9022000F04DF9F72068
:1010400000F034F9202000F047F9EA2000F02EF9F2
:10105000002000F041F9002000F03EF9B12000F03E
:1010600025F9002000F038F91B2000F035F9B620F2
:1010700000F01CF90A2000F02FF9A22000F02CF952
:10108000C02000F013F9102000F026F9C12000F074
:101090000DF9102000F020F9C52000F007F94520D7
:1010A00000F01AF9152000F017F9C72000F0FEF83B
:1010B000902000F011F9362000F0F8F8C82000F078
:1010C0000BF9F22000F0F2F8002000F005F9B02052
:1010D00000F0ECF8C22000F0FFF8B62000F0E6F8CF
:1010E0000A2000F0F9F8A72000F0F6F8272000F019
:1010F000F3F8042000F0F0F82A2000F0D7F80020E0
:1011000000F0EAF8002000F0E7F8002000F0E4F832
:10111000EF2000F0E1F82B2000F0C8F8002000F0EC
:10112000DBF8002000F0D8F8012000F0D5F83F20CF
:1011300000F0D2F8F62000F0B9F8012000F0CCF869
:10114000002000F0C9F8062000F0C6F82C2000F0BE
:10115000ADF8C82002F098FA262000F0A7F8012088
:1011600000F0BAF8E02000F0A1F80F2000F0B4F889
:10117000292000F0B1F8242000F0AEF80C2000F097
:10118000ABF80E2000F0A8F8092000F0A5F84E20DA
:1011900000F0A2F8782000F09FF83C2000F09CF8C6
:1011A000092000F099F8132000F096F8052000F0CF
:1011B00093F8172000F090F8112000F08DF800202F
:1011C00000F08AF8E12000F071F8002000F084F8C7
:1011D000162000F081F81B2000F07EF8042000F0BB
:1011E0007BF8112000F078F8072000F075F8312026
:1011F00000F072F8332000F06FF8422000F06CF835
:10120000052000F069F80C2000F066F80A2000F0D4
:1012100063F8282000F060F82F2000F05DF80F2020
:1012200000F05AF8112000F041F8C82002F02CFA22
:10123000292000F03BF82C2000F038F800BF80BDDA
:1012400080B400AF034B04229A6100BFBD465DF835
:10125000047B70470008024080B400AF044B4FF499
:1012600080229A6100BFBD465DF8047B704700BFD5
:101270000008024080B400AF044B4FF400529A6162
:1012800000BFBD465DF8047B704700BF000C024004
:1012900080B400AF044B4FF000529A6100BFBD46CE
:1012A0005DF8047B704700BF000C024080B582B03F
:1012B00000AF0346FB71FFF7EBFFFFF7CDFFFB79B4
:1012C0001946044801F0F6FFFFF7BAFF00BF0837E0
:1012D000BD4680BD0050014080B582B000AF0346DE
:1012E000FB71FFF7C7FFFFF7B7FFFB79194604480B
:1012F00001F0E0FFFFF7A4FF00BF0837BD4680BD47
:101300000050014080B584B004AF884B1B6B874A06
:1013100043F06F0313630E2302930023019303230F
:101320000093002302220A218148FFF7EDFC0923E4
:101330000293002301930323009300230222002140
:101340007C48FFF7E1FC0E23029300230193032363
:101350000093002302220B217748FFF7D5FC0E23D0
:1013600002930023019303230093002302220C2104
:101370007148FFF7C9FC092302930023019303235B
:1013800000930023022201216A48FFF7BDFC0E23CF
:1013900002930023019303230093002302220621DA
:1013A0006648FFF7B1FC0E23029300230193032349
:1013B00000930023022206215F48FFF7A5FC0923C2
:1013C00002930023019303230093002302220A21A6
:1013D0005A48FFF799FC0E2302930023019303233D
:1013E0000093002302220A215248FFF78DFC0E23AE
:1013F00002930023019303230093002302220B2175
:101400004C48FFF781FC0E23029300230193032332
:1014100000930023022207214548FFF775FC0E23A5
:10142000029300230193032300930023022203214C
:101430004348FFF769FC0E23029300230193032323
:1014400000930023022206213D48FFF75DFC0E2396
:1014500002930023019303230093002302220B2114
:101460003648FFF751FC092302930023019303231D
:101470000093002302220C213048FFF745FC0E2385
:1014800002930023019303230093002302220321EC
:101490002948FFF739FC0E2302930023019303230D
:1014A00000930023022208212248FFF72DFC0E237F
:1014B00002930023019303230093002302220921B6
:1014C0001C48FFF721FC0E23029300230193032302
:1014D00000930023022204211748FFF715FC0E2376
:1014E0000293002301930323009300230222062189
:1014F0000F48FFF709FC0E230293002301930323F7
:101500000093002302220A210E48FFF7FDFB0E2361
:101510000293002301930323009300230222072157
:101520000648FFF7F1FB00BFBD4680BD0038024012
:10153000000802400004024000000240001802407F
:10154000000C02400014024080B400AF1B4B5B6CE7
:101550001A4A43F080635364194B1A4A9A60184B35
:10156000194ADA60164B194A1A61154B184A5A6122
:10157000184B194A5A60174B184A9A60154B0222A9
:101580001A61144B4FF050429A62124B144ADA62BD
:10159000104B4FF4A0721A630E4B1B680D4A43F0B8
:1015A00001031360064B01225A62054B01229A6126
:1015B00000BFBD465DF8047B704700BF00380240A5
:1015C000006801400100090003001D0043010D01F6
:1015D00047011701846801401E000D01040043010A
:1015E000E301E00180B483B000AF03463960FB71D2
:1015F00097F90730002B0ADB3B68DAB20C4997F900
:1016000007301201D2B20B4483F800230AE03B6892
:10161000DAB20849FB7903F00F03043B1201D2B29E
:101620000B441A7600BF0C37BD465DF8047B70474B
:1016300000E100E000ED00E080B582B000AF78602E
:101640007B68013BB3F1807F01D301230FE00A4A9D
:101650007B68013B53600F214FF0FF30FFF7C2FF63
:10166000054B00229A60044B07221A60002318469B
:101670000837BD4680BD00BF10E000E080B483B0F5
:1016800000AF0346FB80FB88042B0DD1234B1B7856
:10169000002B03D1214B01221A7005E01F4B0022C1
:1016A0001A701F4B64221A60FB88B3F5805F0DD15E
:1016B0001C4B1B78002B03D11A4B01221A7005E03A
:1016C000184B00221A70164B65221A60FB88012BFA
:1016D0000DD1154B1B78002B03D1134B01221A702F
:1016E00005E0114B00221A700D4B67221A60FB882F
:1016F000022B0DD10C4B1B78002B03D10A4B01227E
:101700001A7005E0084B00221A70054B6B221A6014
:1017100000BF0C37BD465DF8047B7047D801002040
:10172000C8000020D9010020DA01002080B588B06F
:1017300000AFF860B96011461A460B46FB711346BC
:10174000BB71FB794FF4117202FB03F3FA68D118F5
:10175000BA7913465B0013445B010B4405333449EB
:101760001846FEF745FD0346002B03D1314BD3F855
:10177000C43058E0FB794FF4117202FB03F3FA68AE
:10178000D118BA7913465B0013445B010B4405334F
:1017900029491846FEF72CFD0346002B02D1254BA4
:1017A0005B6F40E0FB794FF4117202FB03F3FA68C0
:1017B000D118BA7913465B0013445B010B4405331F
:1017C0001E491846FEF714FD0346002B02D1194BA3
:1017D0009B6D28E0FB794FF4117202FB03F3FA686A
:1017E000D118BA7913465B0013445B010B440533EF
:1017F00013491846FEF7FCFC0346002B02D10D4BA3
:101800005B6910E03223FB6101F032FFB861FA69D5
:10181000BB69B3FBF2F101FB02F29B1A7B61054A43
:101820007B6952F8233018462037BD4680BD00BF83
:101830002478000800000020307800083C78000878
:101840004478000880B594B002AF03460A46FB71A5
:101850001346BB714FF4A0730022F0210020FEF765
:1018600078FF002300934FF6FF733D4A0A211E20A4
:10187000FEF74AFFBA7907F10C033A49184605F01A
:1018800045F907F10C02002300934FF6FF730A217C
:101890009620FEF739FF0023A7F846300CE0B7F892
:1018A00046304FF6FF7214211846FEF7A7FEB7F830
:1018B00046300133A7F84630B7F84630EF2BEED963
:1018C0000023A7F844300CE0B7F844304FF6FF721D
:1018D00019461420FEF792FEB7F844300133A7F8FA
:1018E0004430B7F84430B3F59A7FEDD31423A7F80A
:1018F00042301AE00023A7F840300DE0B7F842105C
:10190000B7F840304FF6FF721846FEF777FEB7F88B
:1019100040300133A7F84030B7F84030EF2BEDD915
:10192000B7F842303033A7F84230B7F84230B3F559
:10193000B27FDFD1FA7907F10C030B49184605F0A5
:10194000E5F807F10C02002300934FF6FF7340F215
:1019500037115A20FEF7D8FE00BF4837BD4680BD7C
:1019600050780008647800087078000880B592B05C
:1019700002AF78600B46FB701346BB70BB789BB21E
:101980001A46520013441B019BB22033FB87BB78DD
:101990009BB21A46520013441B019BB22C33BB87E7
:1019A000BB789BB21A46520013441B019BB23833DA
:1019B0007B87FB784FF4117202FB03F37A68D1182E
:1019C000BA7813465B0013445B010B4404331B7865
:1019D0001A4607F108033D49184605F097F8FB78C9
:1019E0004FF4117202FB03F37A68D118BA781346E8
:1019F0005B0013445B010B4404331B78092B0AD9A9
:101A000007F10802B98F002300934FF6FF730320FC
:101A1000FEF77AFE09E007F10802B98F0023009370
:101A20004FF6FF730720FEF76FFEFB784FF411723D
:101A300002FB03F37A68D118BA7813465B001344AB
:101A40005B0108330B44DA1DF98F002300934FF636
:101A5000FF731E20FEF758FEFB784FF4117202FB55
:101A600003F37A68D118BA7813465B0013445B011C
:101A70000B445A1D07F108031549184605F046F8AE
:101A800007F10802B98F002300934FF6FF731E2061
:101A9000FEF73AFEFB784FF4117202FB03F37A680B
:101AA000D118BA7813465B0013445B0128330B440A
:101AB0005A1D798F002300934FF6FF731E20FEF707
:101AC00023FE00BF4037BD4680BD00BF7C780008C4
:101AD0008078000880B584B000AF78600B46FB705A
:101AE0001346BB700023FB6009E0FB68DAB2FB78A9
:101AF00019467868FFF73AFFFB680133FB60BB7853
:101B0000FA689A42F1DB00BF00BF1037BD4680BDC6
:101B1000F0B58BB006AF7860FEF7C8FE0346FB73E6
:101B2000FEF7D0FE0346BB73FEF7D8FE0346BB812B
:101B3000FEF7B0FE0346FB72FEF7F1FE0346BB72F2
:101B4000FEF7FCFE03467B72FEF704FF03463B7282
:101B5000BD7A7E7A3B7A3B60FA7BB97BB889FC7AA6
:101B6000094B53F8244004940390029101923B687E
:101B7000009333462A460549786804F0C7FF00BF42
:101B80001437BD46F0BD00BFCC0000208C780008A3
:101B900080B487B000AF78600B46FB70214B7B614F
:101BA0000023FB740123FB6031E00023BB6028E0CD
:101BB0007B6950337B61FB684FF4117202FB03F3C6
:101BC0007A68D118BA6813465B0013445B010B4472
:101BD00060337A691A60FB7C0133FB74FB684FF455
:101BE000117202FB03F37A68D118BA6813465B00DE
:101BF00013445B010B440433FA7C1A70BB68013355
:101C0000BB60BB68052BD3DDFB680133FB60FB7851
:101C1000FA689A42C9DD00BF00BF1C37BD465DF8B7
:101C2000047B704700000E0880B58AB002AF0346FF
:101C3000FB71FA7907F10C030849184604F066FFB6
:101C400007F10C02002300934FF6FF730A21962040
:101C5000FEF75AFD00BF2037BD4680BD64780008FE
:101C600080B586B000AFF8607B600B46FB72134610
:101C7000BB72FB7A012B04D1BB7A002B01D100236C
:101C800033E00123FB752BE0FA7DFB7A9A4201D108
:101C9000BB7A00E006237B750023BB7519E0FB7D52
:101CA0004FF4117202FB03F3FA68D118BA7D1346A0
:101CB0005B0013445B010B44053379681846FEF75B
:101CC00097FA0346002B01D101230EE0BB7D0133BF
:101CD000BB75BA7D7B7D9A42E1D3FB7D0133FB75F9
:101CE000FA7DFB7A9A42CFD9002318461837BD46B1
:101CF00080BD0000B0B5ADF5E35D86B002AF01F088
:101D000051FC00F049FDFEF753FC4FF4E160FFF792
:101D100093FCFEF7EDFE01F0A9FB01F009FAFFF7D5
:101D200073F800F051FE00F0A7FF01F08FF9FFF704
:101D3000E9FAFFF709FC01F079FA01F09FFAFFF7E1
:101D40000DF9FFF735F9012307F5E35202F10F0210
:101D50001370002307F5E35202F10E021370002303
:101D600007F5E35202F10D021370012307F5E35268
:101D700002F10C021370DD48FEF71AFD07F11003A3
:101D8000103B0A211846FFF703FF012307F5E35232
:101D900002F1080213602CE1002307F5E35202F17F
:101DA000040213600CE107F54763A3F5476107F5EB
:101DB000E35303F104031A6807F5E35303F108033F
:101DC000186813465B0013445B014FF4117200FB6B
:101DD00002F213440B4460331A6807F5DF5303F132
:101DE000180311461846FEF73AFE0346002B00F092
:101DF000F08007F11002103A07F5E35303F10403F2
:101E000019680B465B000B445B0107F5E35101F1D8
:101E1000080109684FF4117000FB01F10B441344F1
:101E2000053307F5DF5202F118021146184604F097
:101E3000C1FE07F54763A3F5476107F5E35303F1D7
:101E400004031A6807F5E35303F1080318681346FF
:101E50005B0013445B014FF4117200FB02F2134468
:101E60000B4460331B6803F1100207F5DF5303F1E5
:101E7000180311461846FEF7F2FD0346002B00F04A
:101E8000AA8007F11002103A07F5E35303F10403A7
:101E900019680B465B000B445B0107F5E35101F148
:101EA000080109684FF4117000FB01F10B4408337D
:101EB0001344073307F5DF5202F1180211461846A2
:101EC00004F078FE07F54763A3F5476107F5E35390
:101ED00003F104031A6807F5E35303F108031868D4
:101EE00013465B0013445B014FF4117200FB02F2D6
:101EF00013440B4460331B6803F1300207F5DF53D2
:101F000003F1180311461846FEF7A9FD0346002BFE
:101F100063D007F11002103A07F5E35303F104030D
:101F200019680B465B000B445B0107F5E35101F1B7
:101F3000080109684FF4117000FB01F10B442833CC
:101F40001344053307F5DF5202F118021146184613
:101F500004F030FE07F5E35303F104031B68DBB222
:101F6000013307F5E35202F10E02137007F5E35354
:101F700003F10D031B78013307F5E35202F10D0263
:101F8000137007F5E35303F108031B6807F5E352E9
:101F900002F10F02137007F5E35303F108031B6806
:101FA00007F5E35202F10C02137007F5E35303F156
:101FB00004031B68013307F5E35202F104021360C6
:101FC00007F5E35303F104031B68052B7FF7EBAE22
:101FD00004E000BF02E000BF00E000BF07F5E353EC
:101FE00003F108031B68013307F5E35202F108020D
:101FF000136007F5E35303F108031B680A2B7FF70F
:10200000CBAE07F5E35303F10F031B78002B25D06C
:1020100007F5E35303F10E031B78002B1ED007F5E1
:10202000E35303F10D031A7807F5E35303F10F03AC
:102030001B7811461846FFF705FC07F5E35303F13B
:102040000E031A7807F5E35303F10F03197807F12C
:102050001003103B1846FFF73DFD25E0012307F56F
:10206000E35202F10F021370002307F5E35202F16D
:102070000E021370002307F5E35202F10D021370F4
:10208000012307F5E35202F10C02137007F5E35345
:1020900003F10D031A7807F5E35303F10F031B78DF
:1020A00011461846FFF7CEFB002307F5E3521360F5
:1020B00001224FF480410E4802F0CEF80D4B1B6810
:1020C000643B062B00F2598301A252F823F000BFB3
:1020D000F9200008C7210008A1220008F7260008FF
:1020E0007B2700087B270008732700086401002075
:1020F00000180240C800002072B600BF07F5E35385
:1021000003F10C031B78012B05D1624B66221A6088
:1021100062B600BF36E3604B1B6801335E4A136052
:1021200007F5E35303F10F031A785B4B1B689A42E0
:102130001DD1584B66221A60574B1B68DBB207F55E
:10214000E35202F10D02127811461846FFF77AFBAE
:10215000514B1B68D9B207F5E35303F10E031A780C
:1021600007F11003103B1846FFF7B4FC24E007F515
:10217000E35303F10F031A78474B1B689A4202DAC4
:10218000454B01221A60444B1B68DBB207F5E35252
:1021900002F10D02127811461846FFF753FB3E4B31
:1021A0001B68D9B207F11003103B06221846FFF74F
:1021B00091FC384B68221A60374B1B68374A136012
:1021C00062B600BFDEE272B600BF07F5E35303F16B
:1021D0000C031B78012B05D12E4B66221A6062B6C8
:1021E00000BFCFE22D4B1B68013B2C4A13602B4BE9
:1021F0001B68002B06DC07F5E35303F10F031B7884
:10220000264A136007F5E35303F10F031A78234BB3
:102210001B689A421DD11F4B66221A601F4B1B6818
:10222000DBB207F5E35202F10D02127811461846AF
:10223000FFF708FB194B1B68D9B207F5E35303F10D
:102240000E031A7807F11003103B1846FFF742FC03
:1022500018E0124B1B68DBB207F5E35202F10D02E6
:10226000127811461846FFF7EDFA0C4B1B68D9B2ED
:1022700007F11003103B06221846FFF72BFC054B15
:1022800068221A60054B1B68034A136062B600BFE0
:1022900078E200BFC8000020CC010020D00100205F
:1022A0004349262000F085FC414800F0A7FC034686
:1022B0001A46404B1A703F4B1B78002B40F05F8250
:1022C0003D4B1B68012B00F05A82394B1B78194695
:1022D000374B5B781C46364B9B781A46344BDB7881
:1022E00007F5E15000F10C000193009223460A46E5
:1022F000324904F00BFC07F5E15303F10C0307F539
:10230000E35202F10E02127807F5E35101F10C01DC
:10231000097807F110001038FFF7A2FC0346012BE3
:1023200000F02F8200224FF48041254801F094FFF5
:1023300007F5E35303F10E031B78062B46D107F58F
:10234000E35303F10F031B78013307F5E35202F166
:102350000F02137007F5E35303F10C031B780133ED
:1023600007F5E35202F10C02137007F5E35303F192
:102370000F031B78134A136007F5E35303F10F03B0
:102380001B78114A1360002307F5E35202F10E0295
:10239000137007F5E35303F10D031A7807F5E353C0
:1023A00003F10F031B7811461846FFF74BFA0DE0B7
:1023B000BC010020B8010020D4010020B47800083E
:1023C00000180240CC010020D001002007F5E353A3
:1023D00003F10F03187807F5E35303F10E0319789F
:1023E00007F11002103A0B465B000B445B014FF4FF
:1023F000117100FB01F10B441344053307F5E15261
:1024000002F10C021146184604F0D4FB07F5E35321
:1024100003F10F03187807F5E35303F10E031A785D
:1024200007F54763A3F5476113465B0013445B015F
:102430004FF4117200FB02F213440B4460331A682C
:1024400007F5E15303F10C0311461846FEF7AAFA0B
:1024500007F5E35319684B1C07F5E352136007F5C2
:10246000E35303F10E031B7807F5E35202F10F0269
:10247000127807F110001038FFF758F9024607F5F7
:10248000E15303F10C031146184604F093FB07F5E2
:10249000E35303F10F03187807F5E35303F10E0339
:1024A000197807F11002103A0B465B000B445B01F0
:1024B0004FF4117100FB01F10B440833134407334F
:1024C00007F5E15202F10C021146184604F072FBC6
:1024D00007F5E35303F10F03187807F5E35303F10E
:1024E0000E031A7807F54763A3F5476113465B00AF
:1024F00013445B014FF4117200FB02F213440B44CE
:1025000060331B6803F1100207F5E15303F10C037C
:1025100011461846FEF746FA07F5E15303F10C039E
:102520001846FFF7F5FA07F5E35303F10F031878A0
:1025300007F5E35303F10E03197807F11002103A7F
:102540000B465B000B445B014FF4117100FB01F182
:102550000B4428331344053307F5E15202F10C0212
:102560001146184604F026FB07F5E35303F10F0369
:10257000187807F5E35303F10E031A7807F547635C
:10258000A3F5476113465B0013445B014FF41172DE
:1025900000FB02F213440B4460331B6803F130026A
:1025A00007F5E15303F10C0311461846FEF7FAF95B
:1025B00007F5E35303F10E031A7807F5E35303F12C
:1025C0000F03197807F11003103B1846FFF7CEF9F7
:1025D00007F5E35303F10F03187807F5E35303F10D
:1025E0000E03197807F11002103A0B465B000B44FA
:1025F0005B014FF4117100FB01F10B4408331344EC
:10260000DC1D07F5E35303F10F03187807F5E353D7
:1026100003F10E03197807F11002103A0B465B0024
:102620000B445B014FF4117100FB01F10B441344A7
:102630005D1D07F5E35303F10F03187807F5E35326
:1026400003F10E03197807F11002103A0B465B00F4
:102650000B445B014FF4117100FB01F10B44283373
:102660001344053307F5D95000F1100000932B46B1
:102670002246454904F04AFA07F5D95303F11003FD
:102680001846FDF7BFFD03469AB207F5D95101F18F
:1026900010014FF47A733D4803F07CFE07F5E353D5
:1026A00003F10E031B78013307F5E35202F10E022A
:1026B000137007F5E35303F10D031B78013307F59E
:1026C000E35202F10D02137007F5E35303F10D031A
:1026D0001B78322B02D12E4B6A221A6007F5E35386
:1026E00003F10D031B781846FFF79EFA47F23050AE
:1026F00000F0CAFF43E041F2883000F0C5FFFEF76A
:10270000D6F941F2883000F0BFFF4FF4A0730022E9
:10271000F0210020FEF71DF8012307F5E35202F136
:102720000F021370002307F5E35202F10E0213703B
:10273000002307F5E35202F10D021370012307F5A0
:10274000E35202F10C021370124B00221A6007F5DB
:10275000E35303F10D031A7807F5E35303F10F0375
:102760001B7811461846FFF76DF8094B66221A6070
:1027700008E0084B01221A6004E000BF98E400BFA3
:1027800096E400BF94E400BFC0780008380200203F
:10279000C8000020D401002080B594B000AF07F13C
:1027A000200330220021184604F0D0F907F10C0371
:1027B00000221A605A609A60DA601A610023BB60D6
:1027C000234B1B6C224A43F080531364204B1B6C39
:1027D00003F08053BB60BB6800237B601D4B1B680C
:1027E00023F440431B4A43F480431360194B1B6896
:1027F00003F440437B607B6802233B620123FB625E
:1028000010233B630023BB6307F12003184602F04B
:10281000CBFD0346002B01D000F01EF80F23FB6018
:1028200000233B6100237B614FF48053BB61002395
:10283000FB6107F10C030021184603F02DF8034655
:10284000002B01D000F008F800BF5037BD4680BD16
:10285000003802400070004080B400AF72B600BF84
:1028600000BFFDE780B586B002AF0346FB7107F1FC
:102870000F02F91D642300930123044803F0B5FA05
:10288000FB7B18461037BD4680BD00BFDC01002031
:1028900080B582B000AF03460A46FB711346BB7198
:1028A000002210210C4801F0D7FCFB795B00DBB261
:1028B00003F07E03DBB21846FFF7D4FFBB7918465E
:1028C000FFF7D0FF01221021034801F0C5FC00BF33
:1028D0000837BD4680BD00BF0010024080B584B0FF
:1028E00000AF0346FB71002210210F4801F0B4FC39
:1028F000FB795B005BB203F07E035BB263F07F03A6
:102900005BB2DBB21846FFF7ADFF0020FFF7AAFF6E
:102910000346FB7301221021034801F09DFCFB7B61
:1029200018461037BD4680BD0010024080B584B007
:1029300000AF03460A46FB711346BB71FB7918468C
:10294000FFF7CCFF0346FB73FA7BBB791343DAB284
:10295000FB7911461846FFF79BFF00BF1037BD46B5
:1029600080BD80B584B000AF03460A46FB711346B4
:10297000BB71FB791846FFF7B1FF0346FB7397F96C
:102980000630DB435AB297F90F3013405BB2DAB22C
:10299000FB7911461846FFF77BFF00BF1037BD4695
:1029A00080BD80B500AF1420FFF798FF03211420ED
:1029B000FFF7BCFF00BF80BD80B500AF0F21012035
:1029C000FFF766FF00BF80BD80B500AF0122102178
:1029D000124801F041FC01220821104801F03CFCA2
:1029E000FFF7EAFF8D212A20FFF752FF3E212B201F
:1029F000FFF74EFF1E212D20FFF74AFF00212C205C
:102A0000FFF746FF40211520FFF742FF3D2111202F
:102A1000FFF73EFFFFF7C5FF00BF80BD001002407B
:102A200090B589B000AFB9607B600346FB73134675
:102A3000BB730223FB770023BB7700237B77FB7BF1
:102A40000C2B06D00E2B09D11223BB7710237B77DA
:102A500005E07723BB7730237B7700E000BFBB7FA7
:102A600063F07F03DBB219460220FFF711FF8021DC
:102A70000420FFF776FF80210A20FFF757FF00218F
:102A80000120FFF705FF0023BB610AE0BA68BB69BC
:102A900013441B7819460920FFF7FAFEBB6901337E
:102AA000BB61BB7BBA699A42F0D3FB7B194601201C
:102AB000FFF7EEFEFB7B0C2B03D180210D20FFF7EF
:102AC00035FF4FF4FA63BB610420FFF707FF0346AD
:102AD0003B77BB69013BBB61BB69002B0AD03B7FE5
:102AE00003F00103002B05D13A7F7B7F1340DBB25B
:102AF000002BE9D080210D20FFF733FFBB69002BAD
:102B000052D00620FFF7EAFE034603F01B03002B1A
:102B100048D10023FB773A7FBB7F1340DBB203F041
:102B20000103002B01D00123FB77FB7B0C2B3BD156
:102B30000A20FFF7D3FE03463B770C20FFF7CEFEBB
:102B4000034603F00703FB75FB7D002B08D03B7F9A
:102B5000013BDA00FB7D13441A463B6B1A6004E02C
:102B60003B7FDB001A463B6B1A603B7F002B01D199
:102B700001233B773B7F102B01D910233B770023A8
:102B8000BB610AE07A68BB69D4180920FFF7A6FE8A
:102B900003462370BB690133BB613B7FBA699A422C
:102BA000F0D301E00223FB77FB7F18462437BD46B4
:102BB00090BD80B586B002AF03463960FB71072136
:102BC0000D20FFF765FE3B68FA791A7007F10803DC
:102BD00000933B68012239680C20FFF721FF034670
:102BE000FB73FB7B002B02D1BB68102B01D00223AF
:102BF000FB73FB7B18461037BD4680BD80B586B0A1
:102C000002AF786000237B7300210D20FFF740FEA8
:102C10007B6893221A707B68013320221A7007F1B7
:102C2000080300937B68022279680C20FFF7F8FE06
:102C30000346FB73FB7B002B18D10023BB7309E019
:102C4000BB7B7A6813441A787B7B53407B73BB7BD6
:102C50000133BB73BB7B032BF2D9BB7B7A68134474
:102C60001B787A7B9A4201D00223FB73FB7B1846C8
:102C70001037BD4680BD000080B584B004AFBE4BA8
:102C80001B6BBD4A43F07E0313630C2302930023A6
:102C9000019303230093002302220021B748FEF78B
:102CA00033F80C23029300230193032300930023A2
:102CB00002220121B148FEF727F80C2302930023DA
:102CC000019303230093002302220221AB48FEF765
:102CD0001BF80C230293002301930323009300238A
:102CE00002220321A548FEF70FF80C2302930023CC
:102CF0000193032300930023022204219F48FEF73F
:102D000003F80C2302930023019303230093002371
:102D1000022205219948FDF7F7FF0C2302930023B7
:102D2000019303230093002302220C219348FDF713
:102D3000EBFF0C2302930023019303230093002352
:102D400002220D218D48FDF7DFFF0C2302930023A3
:102D5000019303230093002302220E218748FDF7ED
:102D6000D3FF0C230293002301930323009300233A
:102D700002220F218148FDF7C7FF0C230293002395
:102D80000193032300930023022200217C48FDF7D6
:102D9000BBFF0C2302930023019303230093002322
:102DA000022201217648FDF7AFFF0C230293002396
:102DB000019303230093002302220E217148FDF7A3
:102DC000A3FF0C230293002301930323009300230A
:102DD00002220F216B48FDF797FF0C23029300237B
:102DE0000193032300930023022200216548FDF78D
:102DF0008BFF0C23029300230193032300930023F2
:102E0000022201215F48FDF77FFF0C23029300237C
:102E10000193032300930023022207215A48FDF760
:102E200073FF0C23029300230193032300930023D9
:102E3000022208215448FDF767FF0C230293002368
:102E40000193032300930023022209214E48FDF73A
:102E50005BFF0C23029300230193032300930023C1
:102E600002220A214848FDF74FFF0C23029300235A
:102E7000019303230093002302220B214248FDF714
:102E800043FF0C23029300230193032300930023A9
:102E900002220C213C48FDF737FF0C23029300234C
:102EA000019303230093002302220D213648FDF7EE
:102EB0002BFF0C2302930023019303230093002391
:102EC00002220E213048FDF71FFF0C23029300233E
:102ED000019303230093002302220F212A48FDF7C8
:102EE00013FF0C2302930023019303230093002379
:102EF000022208212348FDF707FF0C230293002339
:102F00000193032300930023022209211D48FDF7AA
:102F1000FBFE0C2302930023019303230093002361
:102F200002220A211748FDF7EFFE0C23029300232B
:102F30000193032300930023022205211348FDF788
:102F4000E3FE0C2302930023019303230093002349
:102F5000022206210D48FDF7D7FE0C230293002321
:102F60000193032300930023022200210848FDF768
:102F7000CBFE0C230EE000BF0038024000140240DC
:102F800000180240000C0240001002400004024001
:102F900000080240029300230193032300930023BF
:102FA000022200212648FDF7AFFE0C2302930023E6
:102FB0000193032300930023022201212048FDF7FF
:102FC000A3FE0C2302930023019303230093002309
:102FD00002220B211B48FDF797FE0C2302930023CE
:102FE0000193032300930023022204211648FDF7D6
:102FF0008BFE0C23029300230193032300930023F1
:10300000022205211048FDF77FFE0C2302930023C6
:103010000193032300930023022208210A48FDF7AD
:1030200073FE0C23029300230193032300930023D8
:1030300002220F210448FDF767FE00BFBD4680BD98
:1030400000100240001402400018024080B582B017
:1030500000AF324B9B6B314A43F001039363304B1B
:103060004FF4B0421A602E4B4FF4EA725A602C4B68
:103070002C4A9A602A4B2C4ADA6000BF284B9B6985
:1030800003F02003002BF9D1254B09221A610120FE
:1030900000F0FAFA00BF224B9B6903F02003002BDB
:1030A000F9D11F4B0A221A6100BF1D4B9B6903F027
:1030B0002003002BF9D11A4B2B221A6100BF184BA9
:1030C0009B6903F02003002BF9D1154B174A1A61B5
:1030D00000BF134B9B6903F02003002BF9D1104B69
:1030E00000225A6100BF0E4B9B6903F02003002BA6
:1030F000F9D14FF050437B6006E07B684FF0FF3220
:103100001A607B6804337B607B6813F13E5FF4D305
:1031100000BF00BF0837BD4680BD00BF0038024079
:10312000400100A000702000720402020C62040042
:1031300080B500AF174B184A1A60164B4FF48272D5
:103140005A60144B00229A60124B0022DA60114B35
:1031500000221A610F4B00225A610E4B4FF400728D
:103160009A610C4B0022DA610A4B00221A62094B69
:1031700000225A62074B00229A62064B0A22DA6248
:10318000044802F0A9FD0346002B01D0FFF764FBC1
:1031900000BF80BDDC0100200034014080B58AB052
:1031A00000AF786007F1140300221A605A609A6039
:1031B000DA601A617B681B68194A93422BD100239D
:1031C0003B61184B5B6C174A43F400535364154B37
:1031D0005B6C03F400533B613B690023FB60114BC4
:1031E0001B6B104A43F0100313630E4B1B6B03F071
:1031F0001003FB60FB6864237B610223BB61002337
:10320000FB6103233B6205237B6207F1140319462C
:10321000054800F075FE00BF2837BD4680BD00BFE1
:1032200000340140003802400010024080B584B0F4
:1032300004AF104B1B6B0F4A43F0200313630523AD
:10324000029300230193022300930023022207210B
:103250000948FDF759FD052302930023019302233A
:1032600000930023022209210348FDF74DFD00BF12
:10327000BD4680BD003802400014024080B400AF5B
:103280000A4B5B6C094A43F480135364084B4CF2BD
:103290001C321A60064B1B68054A43F0400313605A
:1032A00000BFBD465DF8047B704700BF0038024098
:1032B0000050014080B483B000AF78600B46FB70D3
:1032C00000BF7B689B6803F00203002BF9D07B688A
:1032D0000C33FA781A7000BF7B689B6803F0020316
:1032E000002BF9D000BF7B689B6803F08003002BA4
:1032F000F9D100BF00BF0C37BD465DF8047B7047B5
:1033000080B483B000AF00237B60104B5B6C0F4A2E
:1033100043F4804353640D4B5B6C03F480437B6048
:103320007B6800233B60094B1B6C084A43F08053C9
:103330001364064B1B6C03F080533B603B6800BF7B
:103340000C37BD465DF8047B704700BF0038024073
:1033500080B400AF00BFFDE780B400AF00BFFDE761
:1033600080B400AF00BFFDE780B400AF00BFFDE751
:1033700080B400AF00BFFDE780B400AF00BFBD4622
:103380005DF8047B704780B400AF00BFBD465DF8B8
:10339000047B704780B400AF00BFBD465DF8047B7E
:1033A000704780B500AF00F04FF900BF80BD80B519
:1033B00000AF012000F06AFF00BF80BD80B500AF04
:1033C000042000F063FF00BF80BD80B500AF4FF464
:1033D000805000F05BFF00BF80BD000080B586B06C
:1033E00000AF7860144A154BD31A7B617B693B614F
:1033F000134B1B68002B02D1114B124A1A60104B61
:103400001A687B6813443A699A4207D203F0A6FB14
:1034100003460C221A604FF0FF3309E0084B1B688B
:10342000FB60074B1A687B681344054A1360FB680E
:1034300018461837BD4680BD000003200004000078
:1034400034020020F003002080B400AF064BD3F814
:103450008830054A43F47003C2F8883000BFBD4687
:103460005DF8047B704700BF00ED00E080B500AF61
:10347000114B124A1A60104B4FF416525A600E4B01
:1034800000229A600C4B0022DA600B4B00221A617A
:10349000094B0C225A61084B00229A61064B00220C
:1034A000DA61054802F026FF0346002B01D0FFF742
:1034B000D3F900BF80BD00BF3802002000100140DA
:1034C00080B58AB000AF786007F1140300221A605B
:1034D0005A609A60DA601A617B681B68194A9342E5
:1034E0002CD100233B61184B5B6C174A43F010034F
:1034F0005364154B5B6C03F010033B613B69002385
:10350000FB60114B1B6B104A43F0010313630E4B1E
:103510001B6B03F00103FB60FB684FF4C0637B612E
:103520000223BB610023FB6103233B6207237B6211
:1035300007F114031946054800F0E2FC00BF2837E4
:10354000BD4680BD0010014000380240000002402E
:10355000DFF834D0FFF778FF0C480D490D4A0023FF
:1035600002E0D458C4500433C4188C42F9D30A4A38
:103570000A4C002301E013600432A242FBD303F0A3
:10358000F3FAFEF7B7FB70470000032000000020AD
:1035900044010020507A000844010020EC03002080
:1035A000FEE7000080B500AF0E4B1B680D4A43F4E8
:1035B000007313600B4B1B680A4A43F4806313606B
:1035C000084B1B68074A43F480731360032000F024
:1035D0004FF90F2000F008F8FFF792FE002318467D
:1035E00080BD00BF003C024080B582B000AF786073
:1035F000124B1A68124B1B7819464FF47A73B3FBBF
:10360000F1F3B2FBF3F3184600F067F90346002B21
:1036100001D001230EE07B680F2B0AD800227968C5
:103620004FF0FF3000F02FF9064A7B68136000234B
:1036300000E0012318460837BD4680BDE8000020A1
:10364000F0000020EC00002080B400AF064B1B7897
:103650001A46064B1B681344044A136000BFBD465C
:103660005DF8047B704700BFF0000020800200205E
:1036700080B400AF034B1B681846BD465DF8047B61
:10368000704700BF8002002080B584B000AF786032
:10369000FFF7EEFFB8607B68FB60FB68B3F1FF3FAC
:1036A00005D00A4B1B781A46FB681344FB6000BF29
:1036B000FFF7DEFF0246BB68D31AFA689A42F7D8D2
:1036C00000BF00BF1037BD4680BD00BFF000002026
:1036D00080B485B000AF78607B6803F00703FB60BF
:1036E0000C4BDB68BB60BA684FF6FF031340BB604E
:1036F000FB681A02BB68134343F0BF6343F4003313
:10370000BB60044ABB68D36000BF1437BD465DF898
:10371000047B704700ED00E080B400AF044BDB6831
:103720001B0A03F007031846BD465DF8047B70478B
:1037300000ED00E080B483B000AF0346FB7197F961
:103740000730002B0BDBFB7903F01F02074997F9C9
:1037500007305B09012000FA02F241F8232000BF84
:103760000C37BD465DF8047B704700BF00E100E008
:1037700080B483B000AF03463960FB7197F907301E
:10378000002B0ADB3B68DAB20C4997F907301201CB
:10379000D2B20B4483F800230AE03B68DAB208494E
:1037A000FB7903F00F03043B1201D2B20B441A76EB
:1037B00000BF0C37BD465DF8047B704700E100E0B8
:1037C00000ED00E080B489B000AFF860B9607A60C5
:1037D000FB6803F00703FB61FB69C3F10703042BDC
:1037E00028BF0423BB61FB690433062B02D9FB69A4
:1037F000033B00E000237B614FF0FF32BB6902FA1C
:1038000003F3DA43BB681A407B699A404FF0FF31FB
:103810007B6901FA03F3D9437B680B4013431846D5
:103820002437BD465DF8047B7047000080B582B048
:1038300000AF78607B68013BB3F1807F01D3012347
:103840000FE00A4A7B68013B53600F214FF0FF30C5
:10385000FFF78EFF054B00229A60044B07221A6087
:10386000002318460837BD4680BD00BF10E000E0C9
:1038700080B582B000AF78607868FFF729FF00BF9D
:103880000837BD4680BD80B586B000AF0346B9603D
:103890007A60FB7300237B61FFF73EFF78617A68F3
:1038A000B9687869FFF78EFF024697F90F30114625
:1038B0001846FFF75DFF00BF1837BD4680BD80B5D5
:1038C00082B000AF0346FB7197F907301846FFF747
:1038D00031FF00BF0837BD4680BD80B582B000AF64
:1038E00078607868FFF7A2FF034618460837BD46A0
:1038F00080BD000080B586B000AFF860B960C7E950
:1039000000230123FB75234B1B7E012B01D10223D6
:103910003BE0204B01221A764CF2503000F070F858
:103920000346FB75FB7D002B2BD1FB68002B05D1DB
:103930003B781946B86800F01BF916E0FB68012BCC
:1039400005D13B881946B86800F0EEF80DE0FB6839
:10395000022B05D13B681946B86800F0C3F804E0B3
:10396000D7E90023B86800F08BF84CF2503000F033
:1039700047F80346FB75084B1B69074A23F0010310
:103980001361044B00221A76FB7D18461837BD469A
:1039900080BD00BF84020020003C024080B483B0A0
:1039A00000AF0023FB710B4B1B69002B0BDA094B9B
:1039B000094A5A60074B094A5A60064B1B69002B9B
:1039C00001DA0123FB71FB7918460C37BD465DF81F
:1039D000047B7047003C024023016745AB89EFCD73
:1039E00080B400AF054B1B69044A43F000431361E8
:1039F00000231846BD465DF8047B7047003C02403A
:103A000080B584B000AF78600023FB601A4B0022C1
:103A1000DA61FFF72DFEF86010E07B68B3F1FF3F3D
:103A20000CD07B68002B07D0FFF722FE0246FB6814
:103A3000D31A7A689A4201D2032319E00F4BDB684C
:103A400003F48033002BE8D10C4BDB6803F0010357
:103A5000002B02D0094B0122DA60084BDB6803F42B
:103A6000F973002B03D000F0A5F8012300E0002338
:103A700018461037BD4680BD84020020003C02403D
:103A800080B485B000AFF860C7E90023144B1B6910
:103A9000134A23F440731361114B1B69104A43F41A
:103AA000407313610E4B1B690D4A43F00103136110
:103AB000FB683A681A60BFF36F8F00BFD7E9000157
:103AC0004FF000024FF000030A000023F9680431B0
:103AD00013460B6000BF1437BD465DF8047B70478A
:103AE000003C024080B483B000AF786039600D4B79
:103AF0001B690C4A23F4407313610A4B1B69094A82
:103B000043F400731361074B1B69064A43F001033A
:103B100013617B683A681A6000BF0C37BD465DF8D8
:103B2000047B7047003C024080B483B000AF7860F3
:103B30000B467B800D4B1B690C4A23F440731361C9
:103B40000A4B1B69094A43F480731361074B1B69D5
:103B5000064A43F0010313617B687A881A8000BF2C
:103B60000C37BD465DF8047B704700BF003C024047
:103B700080B483B000AF78600B46FB700C4B1B69C0
:103B80000B4A23F440731361094B094A1B69136103
:103B9000074B1B69064A43F0010313617B68FA78FF
:103BA0001A7000BF0C37BD465DF8047B704700BF3C
:103BB000003C024080B400AF2F4BDB6803F01003E1
:103BC000002B08D02D4BDB6943F010032B4AD36147
:103BD000294B1022DA60284BDB6803F02003002B0E
:103BE00008D0264BDB6943F00803244AD361224BFB
:103BF0002022DA60204BDB6803F04003002B08D062
:103C00001E4BDB6943F004031C4AD3611A4B40226C
:103C1000DA60194BDB6803F08003002B08D0174BE8
:103C2000DB6943F00203154AD361134B8022DA604B
:103C3000114BDB6803F48073002B09D00F4BDB6959
:103C400043F001030D4AD3610B4B4FF48072DA60ED
:103C5000094BDB6803F00203002B08D0074BDB693C
:103C600043F02003054AD361034B0222DA6000BF10
:103C7000BD465DF8047B7047003C02408402002092
:103C800080B584B000AF786039600123FB730023F6
:103C9000BB60324B1B7E012B01D102235AE02F4B1C
:103CA00001221A764CF25030FFF7AAFE0346FB734E
:103CB000FB7B002B4AD13B684FF0FF321A607B68D8
:103CC0001B68012B17D17B681B69DAB27B685B68C4
:103CD0001946104600F046F84CF25030FFF790FEBF
:103CE0000346FB731E4B1B691D4A23F4004323F05C
:103CF0000403136128E07B689B68BB601CE07B6861
:103D00001B69DBB21946B86800F066F84CF2503017
:103D1000FFF776FE0346FB73114B1B69104A23F035
:103D2000FA031361FB7B002B03D03B68BA681A606F
:103D30000AE0BB680133BB607B68DA687B689B681C
:103D40001344BA689A42DAD300F094F8034B002285
:103D50001A76FB7B18461037BD4680BD84020020D2
:103D6000003C024080B483B000AF03463960FB7171
:103D7000184B1B69174A23F4407313613B68032BEC
:103D800008D1144B1B69134A43F4004343F0040366
:103D900013610FE03B68012B06D10E4B1B690D4AE6
:103DA00043F00403136105E00A4B1B69094A43F41D
:103DB00000431361074B1A69FB791B021343054A41
:103DC00043F48033136100BF0C37BD465DF8047BBC
:103DD000704700BF003C024080B485B000AF7860FF
:103DE0000B46FB700023FB60FB78002B02D1002305
:103DF000FB6010E0FB78012B03D14FF48073FB6074
:103E000009E0FB78022B03D14FF40073FB6002E062
:103E10004FF44073FB607B680B2B02D97B68043343
:103E20007B60134B1B69124A23F440731361104BE0
:103E30001A690F49FB6813430B610D4B1B690C4A50
:103E400023F0F80313610A4B1A697B68DB00134304
:103E5000074A43F002031361054B1B69044A43F40C
:103E60008033136100BF1437BD465DF8047B704793
:103E7000003C024080B400AF204B1B6803F4007389
:103E8000002B17D01D4B1B681C4A23F400731360D2
:103E90001A4B1B68194A43F400631360174B1B68E5
:103EA000164A23F400631360144B1B68134A43F44F
:103EB00000731360114B1B6803F48063002B17D051
:103EC0000E4B1B680D4A23F4806313600B4B1B6879
:103ED0000A4A43F480531360084B1B68074A23F4D3
:103EE00080531360054B1B68044A43F480631360DE
:103EF00000BFBD465DF8047B704700BF003C024038
:103F000080B489B000AF7860396000237B61002302
:103F10003B610023BB610023FB6177E10122FB6968
:103F200002FA03F37B613B681B687A6913403B61CB
:103F30003A697B699A4240F066813B685B6803F0AE
:103F40000303012B05D03B685B6803F00303022BDE
:103F500030D17B689B68BB61FB695B00032202FA7E
:103F600003F3DB43BA691340BB613B68DA68FB6962
:103F70005B0002FA03F3BA691343BB617B68BA6959
:103F80009A607B685B68BB610122FB6902FA03F3FC
:103F9000DB43BA691340BB613B685B681B0903F0F4
:103FA0000102FB6902FA03F3BA691343BB617B6840
:103FB000BA695A603B685B6803F00303032B17D0B0
:103FC0007B68DB68BB61FB695B00032202FA03F3D9
:103FD000DB43BA691340BB613B689A68FB695B00CD
:103FE00002FA03F3BA691343BB617B68BA69DA600A
:103FF0003B685B6803F00303022B23D1FB69DA08FB
:104000007B68083253F82230BB61FB6903F0070379
:104010009B000F2202FA03F3DB43BA691340BB6132
:104020003B681A69FB6903F007039B0002FA03F37C
:10403000BA691343BB61FB69DA087B680832B96966
:1040400043F822107B681B68BB61FB695B0003229D
:1040500002FA03F3DB43BA691340BB613B685B6858
:1040600003F00302FB695B0002FA03F3BA6913432E
:10407000BB617B68BA691A603B685B6803F44033D4
:10408000002B00F0C0800023FB60664B5B6C654A30
:1040900043F480435364634B5B6C03F48043FB60E5
:1040A000FB68614AFB699B08023352F82330BB610D
:1040B000FB6903F003039B000F2202FA03F3DB43C7
:1040C000BA691340BB617B68584A934237D07B681A
:1040D000574A934231D07B68564A93422BD07B6833
:1040E000554A934225D07B68544A93421FD07B683F
:1040F000534A934219D07B68524A934213D07B684B
:10410000514A93420DD07B68504A934207D07B6856
:104110004F4A934201D1092312E00A2310E00823F9
:104120000EE007230CE006230AE0052308E0042341
:1041300006E0032304E0022302E0012300E0002361
:10414000FA6902F0030292009340BA691343BB611B
:104150003549FB699B080233BA6941F823203D4B7E
:104160009B68BB613B69DB43BA691340BB613B6839
:104170005B6803F48013002B03D0BA693B691343D7
:10418000BB61344ABB699360324BDB68BB613B69FE
:10419000DB43BA691340BB613B685B6803F40013FF
:1041A000002B03D0BA693B691343BB61294ABB6941
:1041B000D360284B5B68BB613B69DB43BA69134042
:1041C000BB613B685B6803F40033002B03D0BA6922
:1041D0003B691343BB611F4ABB6953601D4B1B689E
:1041E000BB613B69DB43BA691340BB613B685B68F9
:1041F00003F48033002B03D0BA693B691343BB61DE
:10420000144ABB691360FB690133FB61FB690F2B27
:104210007FF684AE00BF00BF2437BD465DF8047B47
:10422000704700BF003802400038014000000240E3
:104230000004024000080240000C0240001002404E
:104240000014024000180240001C024000200240FE
:1042500000240240003C014080B483B000AF78608D
:104260000B467B8013467B707B78002B03D07A88CB
:104270007B689A6103E07B881A047B689A6100BFBF
:104280000C37BD465DF8047B7047000080B582B0F6
:1042900000AF0346FB80084B5A69FB881340002B94
:1042A00006D0054AFB885361FB881846FDF7E6F9FE
:1042B00000BF0837BD4680BD003C014080B584B0DA
:1042C00000AF78607B68002B01D101232BE17B6874
:1042D00093F83D30DBB2002B06D17B68002283F8D7
:1042E0003C207868FCF7D0FD7B68242283F83D20D1
:1042F0007B681B681A687B681B6822F001021A60E1
:104300007B681B681A687B681B6842F400421A606D
:104310007B681B681A687B681B6822F400421A607D
:1043200001F0B2FCF8607B685B68814A934207D871
:10433000FB68804A934294BF01230023DBB206E06E
:10434000FB687D4A934294BF01230023DBB2002B1C
:1043500001D00123E7E0FB68784AA2FB03239B0C12
:10436000BB607B681B685B6823F03F017B681B6850
:10437000BA680A435A607B681B681B6A23F03F01D6
:104380007B685B686A4A934202D8BB68013309E0E4
:10439000BB684FF4967202FB03F3694AA2FB032346
:1043A0009B0901337A6812680B4313627B681B68B0
:1043B000DB6923F44F4222F0FF027B685B685C49B3
:1043C0008B4219D8FB68591E7B685B685B00B1FBA8
:1043D000F3F3591C40F6FC730B40002B0AD0FB682A
:1043E000591E7B685B685B00B1FBF3F30133C3F3D9
:1043F0000B0351E004234FE07B689B68002B11D135
:10440000FB68581E7B6859680B465B000B44B0FB89
:10441000F3F30133C3F30B03002B0CBF0123002381
:10442000DBB212E0FB68581E7B6859680B469B00A4
:104430000B4499000B44B0FBF3F30133C3F30B03BC
:10444000002B0CBF01230023DBB2002B01D0012382
:1044500022E07B689B68002B0ED1FB68581E7B68AE
:1044600059680B465B000B44B0FBF3F30133C3F315
:104470000B0343F400430FE0FB68581E7B68596848
:104480000B469B000B4499000B44B0FBF3F3013344
:10449000C3F30B0343F44043796809681343CB61CA
:1044A0007B681B681B6823F0C0017B68DA697B6846
:1044B0001B6A1A437B681B680A431A607B681B6887
:1044C0009B6823F4034323F0FF037A6811697A6839
:1044D000D26811437A6812680B4393607B681B684B
:1044E000DB6823F0FF017B685A697B689B691A438C
:1044F0007B681B680A43DA607B681B681A687B6804
:104500001B6842F001021A607B6800221A647B6813
:10451000202283F83D207B6800221A637B680022FA
:1045200083F83E20002318461037BD4680BD00BFEB
:10453000A08601007F841E00FF083D0083DE1B4330
:10454000D34D621080B588B002AFF8607A601A4629
:104550000B467B8113463B81FFF78AF87861FB6845
:1045600093F83D30DBB2202B40F0E0807B69009374
:10457000192301227049F86800F064FC0346002BFF
:1045800001D00223D3E0FB6893F83C30012B01D12A
:104590000223CCE0FB68012283F83C20FB681B6807
:1045A0001B6803F00103012B07D0FB681B681A6826
:1045B000FB681B6842F001021A60FB681B681A68FE
:1045C000FB681B6822F400621A60FB68212283F8F2
:1045D0003D20FB68102283F83E20FB6800221A640D
:1045E000FB687A685A62FB683A895A85FB685B8D7A
:1045F0009AB2FB681A85FB68504ADA6279897B694E
:104600003A6AF86800F0CEFA0346002B01D0012385
:104610008DE000233B61FB681B685B693B61FB68C5
:104620001B689B693B613B6966E07A69396AF86897
:1046300000F022FD0346002B0DD0FB681B6C042B01
:1046400007D1FB681B681A68FB681B6842F400729C
:104650001A6001236BE0FB685B6A1A78FB681B68D1
:104660001A61FB685B6A5A1CFB685A62FB685B8DC7
:104670009BB2013B9AB2FB685A85FB681B8D013BDC
:104680009AB2FB681A85FB681B685B6903F0040338
:10469000042B1BD1FB681B8D002B17D0FB685B6ABA
:1046A0001A78FB681B681A61FB685B6A5A1CFB6816
:1046B0005A62FB685B8D9BB2013B9AB2FB685A85DC
:1046C000FB681B8D013B9AB2FB681A857A69396ACF
:1046D000F86800F019FD0346002B0DD0FB681B6C39
:1046E000042B07D1FB681B681A68FB681B6842F43F
:1046F00000721A6001231AE0FB681B8D002B94D115
:10470000FB681B681A68FB681B6842F400721A6039
:10471000FB68202283F83D20FB68002283F83E20BE
:10472000FB68002283F83C20002300E002231846A7
:104730001837BD4680BD00BF020010000000FFFF1B
:1047400080B58CB002AFF8607A601A460B467B8168
:1047500013463B81FEF78CFF7862FB6893F83D308F
:10476000DBB2202B40F017827B6A009319230122D1
:104770007C49F86800F066FB0346002B01D0022359
:104780000AE2FB6893F83C30012B01D1022303E2DB
:10479000FB68012283F83C20FB681B681B6803F060
:1047A0000103012B07D0FB681B681A68FB681B68B4
:1047B00042F001021A60FB681B681A68FB681B68FC
:1047C00022F400621A60FB68222283F83D20FB6815
:1047D000102283F83E20FB6800221A64FB687A6886
:1047E0005A62FB683A895A85FB685B8D9AB2FB680E
:1047F0001A85FB685C4ADA6279897B6A3A6BF868E9
:1048000000F052FA0346002B01D00123C4E1FB68FB
:104810001B8D002B13D100233B62FB681B685B6977
:104820003B62FB681B689B693B623B6AFB681B68D9
:104830001A68FB681B6842F400721A6098E1FB6812
:104840001B8D012B1BD1FB681B681A68FB681B685A
:1048500022F480621A600023FB61FB681B685B69BD
:10486000FB61FB681B689B69FB61FB69FB681B685C
:104870001A68FB681B6842F400721A6078E1FB68F2
:104880001B8D022B1BD1FB681B681A68FB681B6819
:1048900022F480621A60FB681B681A68FB681B6858
:1048A00042F400621A600023BB61FB681B685B690D
:1048B000BB61FB681B689B69BB61BB6958E1FB6816
:1048C0001B681A68FB681B6842F480621A60002348
:1048D0007B61FB681B685B697B61FB681B689B698C
:1048E0007B617B6944E1FB681B8D032B00F2F18047
:1048F000FB681B8D012B23D17A6A396BF86800F0B5
:104900004BFC0346002B01D0012345E1FB681B68EB
:104910001A69FB685B6AD2B21A70FB685B6A5A1C40
:10492000FB685A62FB681B8D013B9AB2FB681A85D3
:10493000FB685B8D9BB2013B9AB2FB685A8517E11D
:10494000FB681B8D022B4ED17B6A00933B6B0022D0
:104950000649F86800F076FA0346002B08D00123D8
:104960001AE100BF020010000000FFFF0400010078
:10497000FB681B681A68FB681B6842F400721A60C7
:10498000FB681B681A69FB685B6AD2B21A70FB6825
:104990005B6A5A1CFB685A62FB681B8D013B9AB22A
:1049A000FB681A85FB685B8D9BB2013B9AB2FB6882
:1049B0005A85FB681B681A69FB685B6AD2B21A7079
:1049C000FB685B6A5A1CFB685A62FB681B8D013BE3
:1049D0009AB2FB681A85FB685B8D9BB2013B9AB269
:1049E000FB685A85C4E07B6A00933B6B00226C49EC
:1049F000F86800F027FA0346002B01D00123CBE032
:104A0000FB681B681A68FB681B6822F480621A60E6
:104A1000FB681B681A69FB685B6AD2B21A70FB6894
:104A20005B6A5A1CFB685A62FB681B8D013B9AB299
:104A3000FB681A85FB685B8D9BB2013B9AB2FB68F1
:104A40005A857B6A00933B6B00225549F86800F059
:104A5000F9F90346002B01D001239DE0FB681B6898
:104A60001A68FB681B6842F400721A60FB681B68D6
:104A70001A69FB685B6AD2B21A70FB685B6A5A1CDF
:104A8000FB685A62FB681B8D013B9AB2FB681A8572
:104A9000FB685B8D9BB2013B9AB2FB685A85FB6851
:104AA0001B681A69FB685B6AD2B21A70FB685B6AA2
:104AB0005A1CFB685A62FB681B8D013B9AB2FB686B
:104AC0001A85FB685B8D9BB2013B9AB2FB685A85E5
:104AD0004EE07A6A396BF86800F05EFB0346002B03
:104AE00001D0012358E0FB681B681A69FB685B6A08
:104AF000D2B21A70FB685B6A5A1CFB685A62FB6888
:104B00001B8D013B9AB2FB681A85FB685B8D9BB2DB
:104B1000013B9AB2FB685A85FB681B685B6903F02E
:104B20000403042B24D1FB681B8D032B07D1FB68E6
:104B30001B681A68FB681B6822F480621A60FB68B5
:104B40001B681A69FB685B6AD2B21A70FB685B6A01
:104B50005A1CFB685A62FB681B8D013B9AB2FB68CA
:104B60001A85FB685B8D9BB2013B9AB2FB685A8544
:104B7000FB681B8D002B7FF4B6AEFB68202283F808
:104B80003D20FB68002283F83E20FB68002283F86A
:104B90003C20002300E0022318462837BD4680BD94
:104BA0000400010080B588B002AFF8607A603B6015
:104BB0000B467B81FB68DB6A7B617B69082B06D037
:104BC0007B69012B03D07B6913F5803F08D1FB681B
:104BD0001B681A68FB681B6842F480721A600BE05D
:104BE000FB681B6B122B07D1FB681B681A68FB68FC
:104BF0001B6842F480721A603B6800937B68002255
:104C00004FF00111F86800F01DF90346002B0DD09C
:104C1000FB681B681B6803F48073B3F5807F03D1C6
:104C2000FB684FF400721A64032335E0FB681B69CC
:104C3000B3F5804F08D17B89DBB21A46FB681B684D
:104C400002F0FE021A611BE07B89DB11DBB203F08C
:104C50000603DBB263F00F03DAB2FB681B681A616C
:104C60003B687A680E49F86800F066F90346002B45
:104C700001D0012310E07B89DAB2FB681B681A615E
:104C80003B687A680749F86800F056F90346002B3C
:104C900001D0012300E0002318461837BD4680BD2F
:104CA000080001000200010080B588B002AFF86082
:104CB0007A603B600B467B81FB68DB6A7B61FB684B
:104CC0001B681A68FB681B6842F480621A607B6983
:104CD000082B06D07B69012B03D07B6913F5803F3D
:104CE00008D1FB681B681A68FB681B6842F4807275
:104CF0001A600BE0FB681B6B112B07D1FB681B686C
:104D00001A68FB681B6842F480721A603B68009363
:104D10007B6800224FF00111F86800F093F8034619
:104D2000002B0DD0FB681B681B6803F48073B3F580
:104D3000807F03D1FB684FF400721A64032379E08B
:104D4000FB681B69B3F5804F08D17B89DBB243F068
:104D50000103DAB2FB681B681A615FE07B89DB1133
:104D6000DBB203F00603DBB263F00F03DAB2FB68D9
:104D70001B681A613B687A683049F86800F0DCF813
:104D80000346002B01D0012354E07B89DAB2FB6893
:104D90001B681A613B687A682949F86800F0CCF80A
:104DA0000346002B01D0012344E000233B61FB6854
:104DB0001B685B693B61FB681B689B693B613B69E6
:104DC000FB681B681A68FB681B6842F480721A60F3
:104DD0003B6800937B6800224FF00111F86800F0F7
:104DE00031F80346002B0DD0FB681B681B6803F4E9
:104DF0008073B3F5807F03D1FB684FF400721A64AF
:104E0000032317E07B89DB11DBB203F00603DBB27F
:104E100063F00E03DAB2FB681B681A613B687A68BC
:104E20000749F86800F088F80346002B01D00123F9
:104E300000E0002318461837BD4680BD0800010079
:104E40000200010080B584B000AFF860B9603B603B
:104E50001346FB7148E03B68B3F1FF3F44D0FEF7D7
:104E600007FC0246BB69D31A3A689A4202D33B68F0
:104E7000002B39D1BB681B0CDBB2012B0DD1FB68B9
:104E80001B685B69DA43BB6813409BB2002B0CBF05
:104E900001230023DBB21A460CE0FB681B689B6908
:104EA000DA43BB6813409BB2002B0CBF01230023E5
:104EB000DBB21A46FB799A4216D1FB6800221A63CC
:104EC000FB68202283F83D20FB68002283F83E2007
:104ED000FB681B6C43F02002FB681A64FB6800222D
:104EE00083F83C20012323E0BB681B0CDBB2012BC1
:104EF0000DD1FB681B685B69DA43BB6813409BB24A
:104F0000002B0CBF01230023DBB21A460CE0FB6828
:104F10001B689B69DA43BB6813409BB2002B0CBF34
:104F200001230023DBB21A46FB799A4293D0002377
:104F300018461037BD4680BD80B584B000AFF8601C
:104F4000B9607A603B6071E0FB681B685B6903F4E1
:104F50008063B3F5806F23D1FB681B681A68FB6818
:104F60001B6842F400721A60FB681B686FF4806271
:104F70005A61FB6800221A63FB68202283F83D20F7
:104F8000FB68002283F83E20FB681B6C43F00402A0
:104F9000FB681A64FB68002283F83C20012367E069
:104FA0007B68B3F1FF3F41D0FEF762FB02463B68EE
:104FB000D31A7A689A4202D37B68002B36D1BB6839
:104FC0001B0CDBB2012B0CD1FB681B685B69DA435D
:104FD000BB6813409BB2002B14BF01230023DBB23C
:104FE0000BE0FB681B689B69DA43BB6813409BB20C
:104FF000002B14BF01230023DBB2002B16D0FB686B
:1050000000221A63FB68202283F83D20FB680022FF
:1050100083F83E20FB681B6C43F02002FB681A6497
:10502000FB68002283F83C20012321E0BB681B0CB5
:10503000DBB2012B0CD1FB681B685B69DA43BB68F0
:1050400013409BB2002B14BF01230023DBB20BE003
:10505000FB681B689B69DA43BB6813409BB2002B5B
:1050600014BF01230023DBB2002B7FF46DAF0023BC
:1050700018461037BD4680BD80B584B000AFF860DB
:10508000B9607A6034E0F86800F0E3F80346002B7A
:1050900001D0012334E0BB68B3F1FF3F28D0FEF715
:1050A000E7FA02467B68D31ABA689A4202D3BB6811
:1050B000002B1DD1FB681B685B6903F08003802B0C
:1050C00016D0FB6800221A63FB68202283F83D207B
:1050D000FB68002283F83E20FB681B6C43F0200233
:1050E000FB681A64FB68002283F83C20012307E078
:1050F000FB681B685B6903F08003802BC3D100232E
:1051000018461037BD4680BD80B584B000AFF8604A
:10511000B9607A6034E0F86800F09BF80346002B31
:1051200001D0012334E0BB68B3F1FF3F28D0FEF784
:105130009FFA02467B68D31ABA689A4202D3BB68C8
:10514000002B1DD1FB681B685B6903F00403042B73
:1051500016D0FB6800221A63FB68202283F83D20EA
:10516000FB68002283F83E20FB681B6C43F02002A2
:10517000FB681A64FB68002283F83C20012307E0E7
:10518000FB681B685B6903F00403042BC3D1002395
:1051900018461037BD4680BD80B584B000AFF860BA
:1051A000B9607A6049E0FB681B685B6903F0100333
:1051B000102B19D1FB681B686FF010025A61FB6855
:1051C00000221A63FB68202283F83D20FB6800223E
:1051D00083F83E20FB681A6CFB681A64FB680022A7
:1051E00083F83C20012330E0FEF742FA02467B6858
:1051F000D31ABA689A4202D3BB68002B1DD1FB6850
:105200001B685B6903F04003402B16D0FB6800224B
:105210001A63FB68202283F83D20FB68002283F894
:105220003E20FB681B6C43F02002FB681A64FB689D
:10523000002283F83C20012307E0FB681B685B69C0
:1052400003F04003402BAED1002318461037BD4673
:1052500080BD80B483B000AF78607B681B685B69F9
:1052600003F48063B3F5806F1BD17B681B686FF418
:1052700080625A617B6800221A637B68202283F86F
:105280003D207B68002283F83E207B681B6C43F046
:1052900004027B681A647B68002283F83C200123A7
:1052A00000E0002318460C37BD465DF8047B7047CC
:1052B00080B483B000AF786039607B6893F83D308C
:1052C000DBB2202B29D17B68242283F83D207B6828
:1052D0001B681A687B681B6822F001021A607B68F1
:1052E0001B685A6A7B681B6822F010025A627B684E
:1052F0001B68596A7B681B683A680A435A627B6874
:105300001B681A687B681B6842F001021A607B68A0
:10531000202283F83D20002300E0022318460C37AA
:10532000BD465DF8047B704780B485B000AF7860FF
:1053300039600023FB817B6893F83D30DBB2202B82
:105340002AD17B68242283F83D207B681B681A6879
:105350007B681B6822F001021A607B681B685B6A2D
:10536000FB81FB8923F00F03FB813B689AB2FB8929
:105370001343FB817B681B68FA895A627B681B6850
:105380001A687B681B6842F001021A607B68202261
:1053900083F83D20002300E0022318461437BD4661
:1053A0005DF8047B7047000080B586B000AF786080
:1053B0007B68002B01D1012367E27B681B6803F047
:1053C0000103002B75D0884B9B6803F00C03042B62
:1053D0000CD0854B9B6803F00C03082B12D1824B39
:1053E0005B6803F48003B3F5800F0BD17E4B1B6821
:1053F00003F40033002B5BD07B685B68002B57D134
:10540000012342E27B685B68B3F5803F06D1764BAF
:105410001B68754A43F4803313601DE07B685B684A
:10542000B3F5A02F0CD1704B1B686F4A43F4802357
:1054300013606D4B1B686C4A43F4803313600BE0C0
:10544000694B1B68684A23F480331360664B1B6802
:10545000654A23F4802313607B685B68002B13D0BC
:10546000FEF706F9386108E0FEF702F902463B69EB
:10547000D31A642B01D9032307E25B4B1B6803F4A7
:105480000033002BF0D014E0FEF7F2F8386108E0AA
:10549000FEF7EEF802463B69D31A642B01D90323C9
:1054A000F3E1514B1B6803F40033002BF0D100E013
:1054B00000BF7B681B6803F00203002B63D04A4BDC
:1054C0009B6803F00C03002B0BD0474B9B6803F049
:1054D0000C03082B1CD1444B5B6803F48003002BA6
:1054E00016D1414B1B6803F00203002B05D07B68EB
:1054F000DB68012B01D00123C7E13B4B1B6823F084
:10550000F8027B681B69DB00374913430B603AE004
:105510007B68DB68002B20D0344B01221A60FEF739
:10552000A7F8386108E0FEF7A3F802463B69D31AF2
:10553000022B01D90323A8E12B4B1B6803F00203C4
:10554000002BF0D0284B1B6823F0F8027B681B6906
:10555000DB00254913430B6015E0244B00221A6041
:10556000FEF786F8386108E0FEF782F802463B69EC
:10557000D31A022B01D9032387E11B4B1B6803F0CD
:105580000203002BF0D17B681B6803F00803002B9B
:1055900036D07B685B69002B16D0154B01221A6050
:1055A000FEF766F8386108E0FEF762F802463B69EC
:1055B000D31A022B01D9032367E10B4B5B6F03F076
:1055C0000203002BF0D01BE0094B00221A60FEF70B
:1055D0004FF838610EE0FEF74BF802463B69D31AEC
:1055E000022B07D9032350E1003802400000474254
:1055F000800E4742884B5B6F03F00203002BEAD119
:105600007B681B6803F00403002B00F097800023E5
:10561000FB75814B1B6C03F08053002B0FD10023D3
:10562000BB607D4B1B6C7C4A43F0805313647A4B08
:105630001B6C03F08053BB60BB680123FB75774B89
:105640001B6803F48073002B18D1744B1B68734ADA
:1056500043F480731360FEF70BF8386108E0FEF73F
:1056600007F802463B69D31A022B01D903230CE148
:105670006A4B1B6803F48073002BF0D07B689B6837
:10568000012B06D1644B1B6F634A43F00103136780
:105690001CE07B689B68052B0CD15F4B1B6F5E4A3F
:1056A00043F0040313675C4B1B6F5B4A43F0010339
:1056B00013670BE0584B1B6F574A23F00103136726
:1056C000554B1B6F544A23F0040313677B689B6898
:1056D000002B15D0FDF7CCFF38610AE0FDF7C8FFBD
:1056E00002463B69D31A41F28832934201D903231F
:1056F000CBE0494B1B6F03F00203002BEED014E00C
:10570000FDF7B6FF38610AE0FDF7B2FF02463B69DC
:10571000D31A41F28832934201D90323B5E03E4BBC
:105720001B6F03F00203002BEED1FB7D012B05D193
:10573000394B1B6C384A23F0805313647B689B6998
:10574000002B00F0A180344B9B6803F00C03082B66
:105750005CD07B689B69022B41D1314B00221A60DF
:10576000FDF786FF386108E0FDF782FF02463B69DE
:10577000D31A022B01D9032387E0274B1B6803F0C0
:105780000073002BF0D17B68DA697B681B6A1A43CF
:105790007B685B6A9B011A437B689B6A5B08013BE1
:1057A0001B041A437B68DB6A1B061B4913434B60CF
:1057B0001B4B01221A60FDF75BFF386108E0FDF723
:1057C00057FF02463B69D31A022B01D903235CE041
:1057D000114B1B6803F00073002BF0D054E0104B0A
:1057E00000221A60FDF744FF386108E0FDF740FF32
:1057F00002463B69D31A022B01D9032345E0064B2D
:105800001B6803F00073002BF0D13DE07B689B69BF
:10581000012B07D1012338E000380240007000401E
:10582000600047421B4B5B68FB607B689B69012BF8
:1058300028D0FB6803F480027B68DB699A4221D19F
:10584000FB6803F03F027B681B6A9A421AD1FA6830
:1058500047F6C07313407A68526A9201934211D19D
:10586000FB6803F440327B689B6A5B08013B1B04C6
:105870009A4207D1FB6803F070627B68DB6A1B0603
:105880009A4201D0012300E0002318461837BD4694
:1058900080BD00BF0038024080B584B000AF7860A2
:1058A00039607B68002B01D10123CCE0684B1B6879
:1058B00003F00F033A689A420CD9654B3A68D2B2AA
:1058C0001A70634B1B6803F00F033A689A4201D0C9
:1058D0000123B8E07B681B6803F00203002B20D093
:1058E0007B681B6803F00403002B05D0594B9B68B1
:1058F000584A43F4E05393607B681B6803F0080345
:10590000002B05D0534B9B68524A43F4604393608D
:10591000504B9B6823F0F0027B689B684D49134312
:105920008B607B681B6803F00103002B44D07B680D
:105930005B68012B07D1474B1B6803F40033002B36
:1059400019D101237FE07B685B68022B03D07B6861
:105950005B68032B07D13F4B1B6803F00073002BE0
:1059600009D101236FE03B4B1B6803F00203002BBE
:1059700001D1012367E0374B9B6823F003027B686A
:105980005B68344913438B60FDF772FEF8600AE0F0
:10599000FDF76EFE0246FB68D31A41F2883293424D
:1059A00001D903234FE02B4B9B6803F00C027B686B
:1059B0005B689B009A42EBD1254B1B6803F00F03F9
:1059C0003A689A420CD2224B3A68D2B21A70204BF3
:1059D0001B6803F00F033A689A4201D0012332E0BA
:1059E0007B681B6803F00403002B08D0194B9B68ED
:1059F00023F4E0527B68DB68164913438B607B68B5
:105A00001B6803F00803002B09D0124B9B6823F49A
:105A100060427B681B69DB000E4913438B6000F01A
:105A200021F802460B4B9B681B0903F00F030A4940
:105A3000CB5C22FA03F3094A1360094B1B68184632
:105A4000FDF7D2FD002318461037BD4680BD00BFCC
:105A5000003C024000380240F4790008E8000020D1
:105A6000EC0000202DE9B04F94B000AF00237B6420
:105A70000023FB6400233B640023BB64794B9B68D9
:105A800003F00C03082B0DD0082B00F2E180002B53
:105A900002D0042B03D0DBE0734BBB64DBE0734B21
:105AA000BB64D8E06F4B5B6803F03F037B646D4BD6
:105AB0005B6803F48003002B63D06A4B5B689B092F
:105AC0000022BB63FA63BB6BC3F308033B63002391
:105AD0007B63D7E90C4522462B464FF000004FF080
